:100000006F00C0006F0000006F00C0029702000088
:10001000938282027390523073500030735040309C
:10002000971100009381014217210000130181CD37
:100030006F000013130101F8232011002322210077
:10004000232431002326410023285100232A610064
:10005000232C7100232E8100232091022322A10250
:100060002324B1022326C1022328D102232AE1023C
:10007000232CF102232E0103232011052322210525
:10008000232431052326410523285105232A610510
:10009000232C7105232E8105232091072322A107FC
:1000A0002324B1072326C1072328D107232AE107E8
:1000B000232CF107F3221034232E5106732520340C
:1000C000F325103413060100EF00C015731015342A
:1000D000B72200009382028073A0023083200100C7
:1000E00003214100832181000322C10083220101F9
:1000F00003234101832381010324C10183240102DD
:1001000003254102832581020326C10283260103C0
:1001100003274103832781030328C10383280104A4
:100120000329410483298104032AC104832A010588
:10013000032B4105832B8105032CC105832C01066C
:10014000032D4106832D8106032EC106832E010750
:10015000032F4107832F810713010108730020300B
:10016000B7170080130101FE938707C32322F10014
:1001700037170080B7170080B7160080232E1100B4
:100180002324010023260100938707C4130707C413
:10019000938606C463F6F604B7170080371700800D
:1001A000938707C4130707C49386018A63F4F60490
:1001B0009387018A1387018B6378F7049387018BF8
:1001C0001387018C6378F704930541001305100031
:1001D000EF00D0158320C1011301010267800000E8
:1001E00003260700938747001307470023AEC7FE87
:1001F0006FF05FFA03260700938747001307470055
:1002000023AEC7FE6FF09FFA23A007009387470035
:100210006FF09FFA23A00700938747006FF09FFAC3
:1002200067800000130101FF2322910023261100A3
:10023000232481002320210193840500635A0512A1
:1002400013151500135515009307B0006310F50A38
:10025000F32740F193870720370400409397C700A6
:10026000B307F40003A94700B7170080938707C4BA
:1002700013172900B387E70083A70700E78007006B
:10028000F32740F1938707209397C700B307F40043
:1002900023A2270193071000631CF502F32740F106
:1002A0009397570013575900B387E7009397270098
:1002B0003304F400B72700003304F400832704005C
:1002C000331525011345F5FF3375F5002320A400F0
:1002D0008320C10003248100138504000329010049
:1002E000832441001301010167800000930770001F
:1002F0006314F50613040008F3374430EF00000AD6
:10030000B7C7004403A887FF83A8C7FFF32740F1BE
:100310009386018A03A7060083A546003307E800F9
:10032000333507011306070037170000130707804E
:10033000B387E7009397370037070044B307F70008
:10034000B385B800B306B50023A0C70023A2D70029
:10035000732444306FF0DFF793073000631AF50021
:10036000EF00C002B707004423A007006FF05FF65C
:10037000F3274034F3273034F3275030F327003489
:10038000F3270030730010006FF09FF4130101FF9A
:100390001305A00023261100EF00801067800000E5
:1003A000130500006780000013050000678000004F
:1003B000130500006780000013050000678000003F
:1003C000130500006780000013050000678000002F
:1003D000130500006780000013050000678000001F
:1003E000130500006780000013050000678000000F
:1003F00013050000678000001305000067800000FF
:1004000013050000678000001305000067800000EE
:1004100013050000678000001305000067800000DE
:1004200013050000678000001305000067800000CE
:1004300013050000678000001305000067800000BE
:1004400013050000678000001305000067800000AE
:10045000130500006780000013050000678000009E
:10046000130500006780000013050000678000008E
:10047000130500006780000013050000678000007E
:10048000130500006780000013050000678000006E
:10049000130500006780000013050000678000005E
:1004A0006F0000002320B5006780000003250500D1
:1004B00067800000138E0600331EBE00337ECE0020
:1004C000032305009303060093C3F3FF3373730004
:1004D0003363C30123206500678000000325050006
:1004E0003375C5003355B500678000002310B50093
:1004F000678000000315050067800000138E06006A
:10050000331EBE00337ECE000313050093030600A6
:1005100093C3F3FF337373003363C3012310650088
:1005200067800000031505003375C5003355B5001D
:10053000678000002300B500678000000305050008
:1005400067800000138E0600331EBE00337ECE008F
:10055000030305009303060093C3F3FF3373730093
:100560003363C301230065006780000003050500B5
:100570003375C5003355B500678000006304050A74
:100580009307700063E0D70AB7270000637CF60882
:10059000130101FE232C81002328210113040600EE
:1005A00013890500232A91009375F60F9304050023
:1005B0001354544013058900232E110023263101C2
:1005C0001374847F93890600EFF0DFF61305C900EA
:1005D000B3653401EFF01FF61305090123A02401D0
:1005E000EFF0DFF513752500631205022382040086
:1005F0008320C101032481018324410103290101D6
:100600008329C100130101026780000003A50400D3
:1006100013054500EFF09FF203A504001305050143
:100620006FF01FFC6780000063020506638005060B
:10063000130101FF232481002322910023261100AE
:10064000930405001384050083470400639C07009E
:100650008320C10003248100832441001301010190
:100660006780000003A5040013050501EFF01FEDEE
:1006700013751500E30805FE8345040003A5040077
:1006800013041400EFF01FEB6FF01FFC67800000F5
:10069000130101FF2324810013040500232291008C
:1006A00023202101232611002320B4009384050078
:1006B0002322C50013890508138504009305000053
:1006C00093844400EFF01FE7E39824FF832744005E
:1006D00013071000638AE7026384070613072000EC
:1006E000639AE70A03250400032481008320C100E4
:1006F00083244100032901009305F0FF1305050839
:10070000130101016FF01FDA03250400B704010093
:100710009385F4FF13050508EFF05FDD0325040062
:10072000032481008320C100032901009385F4FF85
:100730008324410013054508130101016FF01FDBFD
:10074000032504009305F00F13050508EFF09FDE65
:10075000032504009305F00F13054508EFF09FDD16
:10076000032504009305F00F13058508EFF09FDCC7
:1007700003250400032481008320C1008324410059
:10078000032901009305F00F1305C50813010101AA
:100790006FF05FDA8320C1000324810083244100CD
:1007A0000329010013010101678000001307F00114
:1007B000636CB70003250500939725009305060099
:1007C0003385A7006FF01FCE6780000083274500A8
:1007D000130101FF2324810023229100232611000D
:1007E0001307100013040500938405006386E702D5
:1007F000638E0704130720006396E70A03250500AC
:10080000032481008320C100832441001305050ACD
:10081000130101016FF01FC9032505009395050120
:1008200093D505011305050AEFF05FCC03250400FD
:10083000032481008320C10093D504018324410057
:100840001305450A130101016FF05FCA0325050076
:1008500093F5F50F1305050AEFF0DFCD032504002E
:1008600093D5840093F5F50F1305450AEFF09FCC5F
:100870000325040093D5040193F5F50F1305850AAC
:10088000EFF05FCB03250400032481008320C10027
:1008900093D58401832441001305C50A1301010186
:1008A0006FF05FC98320C1000324810083244100CD
:1008B000130101016780000083274500130101FF38
:1008C00023248100232611002322910023202101CB
:1008D00013071000130405006388E702638407060A
:1008E000130720006398E70A03250500032481000D
:1008F0008320C10083244100032901001305050A58
:10090000130101016FF09FBA032505001305050AC5
:10091000EFF05FBE93040500032504001305450AAC
:10092000EFF05FBD13150501336595008320C1000D
:1009300003248100832441000329010013010101E4
:1009400067800000032505001305050AEFF09FBA34
:1009500093040500032504001305450AEFF09FB931
:100960001309050003250400131989001305850ADE
:10097000EFF05FB8131505013369A90003250400E2
:10098000B36499001305C50AEFF0DFB613158501AE
:100990006FF09FF9130500006FF05FF9130101FE7E
:1009A000232A910083244500232C81002328210140
:1009B0002326310123225101232E1100232441013A
:1009C00013041000930A050013890500930906001B
:1009D000638E84046384040C930720006396F412EE
:1009E00003250500331424011305050AEFF01FAC9D
:1009F000B365A400639609001344F4FFB375A40023
:100A000003A50A00032481018320C101832441013D
:100A1000032901018329C100032A8100832A41009F
:100A20001305050A130101026FF0DFA783270500F4
:100A300013DA4500131A2A00130A0A0A1374F9007C
:100A4000330AFA00B394840013050A009394040156
:100A5000EFF05FAA93D40441639E090293C4F4FFAC
:100A6000B3F4A40003248101939504018320C10100
:100A700083244101032901018329C100832A410004
:100A800013050A00032A810093D505011301010211
:100A90006FF0DFA5B3E4A4006FF0DFFC832705004F
:100AA00093D43500939424009384040A1379790035
:100AB000B384F40033142401138504001314840157
:100AC000EFF0DFA713548441639C09021344F4FF41
:100AD0003374A4009375F40F032481018320C101B2
:100AE000032901018329C100032A8100832A4100CF
:100AF0001385040083244101130101026FF09FA3B9
:100B00003364A4006FF01FFD8320C1010324810121
:100B100083244101032901018329C100032A8100A3
:100B2000832A41001301010267800000130101FEC6
:100B3000232C810013062000B71500601385018B5C
:100B4000232E1100232A910023260100EFF05FB429
:100B500013065000930500001385018BEFF01FC5AD
:100B600013065000930510001385018BEFF01FC48E
:100B700013065000930520001385018BEFF01FC36F
:100B800013065000930530001385018BEFF01FC250
:100B900013061000930500001385018BEFF01FE092
:100BA00013060000930510001385018BEFF01FDF83
:100BB00013061000930520001385018BEFF01FDE54
:100BC00013060000930530001385018BEFF01FDD45
:100BD0001385818B930610001306B003B7050060E0
:100BE000EFF0DF991385818B93850188EFF0DFA308
:100BF000B70708002326F100B70408008327C100C7
:100C00009387F7FF2326F1008327C100E348F0FE16
:100C10001385018B23269100EFF01FCA9345F50041
:100C20001385018BEFF09FBA6FF05FFD00000000AD
:100C300068656C6C6F0000000000000000000000A0
:100C4000A0030080A8030080B0030080B8030080E8
:100C5000C0030080C8030080D0030080D803008058
:100C6000E0030080E8030080F0030080F8030080C8
:100C70000004008008040080100400801804008034
:100C800020040080280400803004008038040080A4
:100C90004004008048040080500400805804008014
:100CA0006004008068040080700400807804008084
:100CB00080040080880400809004008098040080F4
:100CC0000D0A0D0A48656C6C6F20576F726C6421B9
:100CD0000000000000000000000000000000000014
:040000058000000077
:00000001FF
